:020000040800F2
:10000000580900201D1E0008810200088302000814
:10001000870200088B0200088F0200080000000021
:100020000000000000000000000000009302000833
:1000300095020008000000009702000899020008DD
:10004000371E0008371E0008371E0008371E00083C
:10005000371E0008371E0008371E0008371E00082C
:10006000371E0008371E0008371E0008371E00081C
:10007000371E0008371E0008371E0008371E00080C
:10008000371E0008371E0008371E0008371E0008FC
:10009000371E0008371E0008371E0008371E0008EC
:1000A000371E0008371E0008371E0008371E0008DC
:1000B000371E0008371E0008371E0008371E0008CC
:1000C000371E0008371E0008371E0008371E0008BC
:1000D000371E0008371E0008371E0008371E0008AC
:1000E000371E0008371E0008371E0008371E00089C
:1000F000371E0008371E0008371E0008371E00088C
:10010000371E0008371E0008371E0008371E00087B
:10011000371E0008371E0008371E0008371E00086B
:10012000371E0008371E0008371E0008371E00085B
:10013000371E0008371E0008371E0008371E00084B
:10014000371E0008371E0008371E0008371E00083B
:10015000371E0008371E0008371E0008371E00082B
:10016000371E0008371E0008371E0008371E00081B
:10017000371E0008371E0008371E0008371E00080B
:10018000371E0008371E000800F002F800F05CF887
:100190000AA090E8000C82448344AAF10107DA45E2
:1001A00001D100F051F8AFF2090EBAE80F0013F0D8
:1001B000010F18BFFB1A43F001031847F450000069
:1001C000145100000A444FF0000C10F8013B13F0EA
:1001D000070408BF10F8014B1D1108BF10F8015BA0
:1001E000641E05D010F8016B641E01F8016BF9D193
:1001F00013F0080F1EBF10F8014BAD1C0C1B09D1EA
:100200006D1E58BF01F801CBFAD505E014F8016B5B
:1002100001F8016B6D1EF9D59142D6D370470000ED
:100220000023002400250026103A28BF78C1FBD8FF
:10023000520728BF30C148BF0B6070471FB503F09D
:100240003DFB1FBD10B510BD02F0E0FD1146FFF7EC
:10025000F5FF00F008F802F0FEFD03B4FFF7F2FF2F
:1002600003BC02F003FEA82001F056FD00F01EF9C9
:1002700000F074F900F0BAFE01E000F0E9FBFCE7E1
:10028000704700BFFEE700BFFEE700BFFEE700BF0C
:10029000FEE7704770477047704700000CB50020BC
:1002A000019000907648006840F4803074490860FE
:1002B00000BF7348006800F4003000900198401CB3
:1002C0000190009818B90198B0F5A04FF1D16C4891
:1002D000006800F4003010B10120009001E000201F
:1002E00000900098012846D165484030006840F0F1
:1002F00080506349403108606248006840F44040E3
:10030000604908605E48083000685D49083108604F
:100310000846006840F4004008600846006840F461
:10032000A05008605848091F0860081F006840F086
:100330008070091F086000BF5148006800F000701D
:100340000028F9D040F20570504908604C48083048
:10035000006820F003004A49083108600846006838
:1003600040F00200086000BF45480830006800F017
:100370000C000828F8D10CBD10B54548006840F4C1
:100380007000434908603E48006840F001003C4965
:10039000086000203A4908310860394800683D4942
:1003A0000840374908603C48091D0860081F00687C
:1003B00020F48020091F0860002031490C310860BA
:1003C000FFF76CFF4FF0006031498039086010BDC5
:1003D00070B500200022022300240221284D083598
:1003E0002D6805F00C0020B1042806D0082834D16F
:1003F00007E02A4D2A4E356033E02A4D284E3560FD
:100400002FE01F4D2D1D2D68C5F380541C4D2D1D53
:100410002D6805F03F0154B1224DB5FBF1F5184EA2
:10042000361D3668C6F3881605FB06F209E01B4D3B
:10043000B5FBF1F5124E361D3668C6F3881605FB7E
:1004400006F20F4D2D1D2D68C5F301456D1C6B0087
:10045000B2FBF3F5124E356003E0104D104E3560DF
:1004600000BF00BF064D08352D68C5F303150E4EBD
:10047000705D0B4D2D68C540094E356070BD0000A4
:10048000003802400070004008544007003C024021
:1004900088ED00E0FFFFF6FE103000240024F40099
:1004A0002400002000127A002800002010B52DED55
:1004B0000A8B002400F02AFE00BF0DE01F4A02EB69
:1004C000440251781D4A12F8140000F065FE202005
:1004D00001F084FC601CC4B2062CEFDB00F016F9BE
:1004E000042000F099FE00F0010010B19FED148B84
:1004F00001E09FED158B164991F9000002F033FFE2
:1005000041EC1A0B134991F9001001F57A7002F0D1
:100510002AFF41EC1C0B53EC182B02F0DBFF41ECE3
:100520001B0B53EC1A2B02F0B5FC41EC190B02F03B
:10053000EDFE09490860BDEC0A8B10BD3C000020AF
:100540000000000000000840000000000000F83F2C
:10055000480000204F0000203800002000B59BB06C
:100560000121880502F00EF80121080202F064F86A
:100570000121022002F006F80121042002F002F815
:10058000002002905C4803905C4804900020059095
:1005900064200690002007904FF48060089040008F
:1005A000099080000A9040110B9040020C900020AE
:1005B0000D9001200E9000200F90109002A950483D
:1005C00001F044F901214E4801F07AF90120009030
:1005D00003208DF8040000208DF8070002208DF81C
:1005E00005006946474801F02FFD2020009069462C
:1005F000454801F029FD002011904FF48030129001
:10060000002013904FF47060149011A800F084FE45
:100610000020159001208DF858008DF85900002019
:100620001790199002208DF8680015A932484C38AF
:1006300000F043FE0623012208212F484C3800F029
:10064000C2FE062302220F212B484C3800F0BBFECD
:10065000012129484C3800F061FF012126484C381F
:1006600000F051FF012124484C3800F06CFE224874
:100670004C3800F004FF1BB000BD034600220021EF
:10068000082B02D00F2B1DD10DE0002105E01B48E7
:1006900030F821000244481CC1B23229F7DB322075
:1006A000B2FBF0F20EE0002106E0144800EB8100FE
:1006B00040880244481CC1B23229F6DB3220B2FB2A
:1006C000F0F200BF00BF90B270472DE9F04107463D
:1006D0000C460025002608E03846FFF7CEFF05440B
:1006E000052001F07BFB701CC6B2A642F4DBB5FB13
:1006F000F4F080B2BDE8F0814C20014030020020CF
:1007000010640240000402400008024070B5002559
:100710000DE045F0100000F07FFD04462011FE4979
:10072000485504F00F00FD494855681CC5B2072D17
:10073000EFDB1B2000F070FD0446F74890F9000045
:1007400004F00601202282EAC10120390843F2495F
:100750000870F24890F9000004F00101102282EACA
:10076000011110390843ED490870172000F054FDBD
:100770000446E94890F9010004F08001102282EA61
:10078000E10110390843E4494870E44890F9010058
:1007900004F0400182EAA10110390843DF494870A2
:1007A000DD4890F9020004F0200182EA610110396D
:1007B0000843D9498870D94890F9020004F0100123
:1007C00081F0100110390843D4498870182000F0D6
:1007D00023FD0446D04890F9030004F08001102264
:1007E00082EAE10110390843CB49C870CB4890F93F
:1007F000030004F0400182EAA10110390843C7490F
:10080000C870C54890F9040004F0200182EA610133
:1008100010390843C0490871C04890F9040004F039
:10082000100181F0100110390843BC490871BA4821
:1008300090F9050004F0080182EA410110390843EB
:10084000B5494871B54890F9050004F0040182EA01
:10085000810110390843B1494871AF4890F9060049
:1008600004F0020182EAC10110390843AA498871E3
:10087000AA4890F9060004F0010182EA011110393A
:100880000843A649887170BD2DE9F0412DED068B16
:1008900000BF00BF002608210846FFF716FFA04949
:1008A0000860032000F0B8FC00F0010008B1082641
:1008B00000E004269A4800689A49098888420ED9BF
:1008C0009748006897490988441A00253246002352
:1008D0002046294602F0D5F904460D461AE0904814
:1008E000006890490988884206D18D4800688D4982
:1008F0000988441A00250DE08A480088884909685B
:10090000441A0025324600232046294602F0B9F950
:1009100004460D468448006800272146A1FB002CB0
:1009200005FB00C004FB070514462046294602F0DB
:1009300031FD9FED7E0B53EC102B02F05FFB9FED22
:100940007D0B53EC102B02F059FB41EC180B9FED83
:100950007B0B53EC102B51EC180B02F04FFB41ECCE
:10096000180BB0EE480AF0EE680ABDEC068BBDE845
:10097000F0812DE9F0412DED068B82B0044600BFD9
:100980009FED700BB0EE409AF0EE609A00BF002031
:100990000190601EC0B240F0100001909DF804105C
:1009A000012000F0F9FB202001F018FA042000F0EB
:1009B00033FC00F0010030B19FED640BB0EE409AC3
:1009C000F0EE609A06E09FED630BB0EE409AF0EE19
:1009D000609A00BF08210F20FFF777FE524909688F
:1009E00048434D4909574FF4805212FB0105002638
:1009F0004A48005700F57A70C1172A46A0FB027CCE
:100A000001FB05C106FB00163D464FF48052002352
:100A10002846314602F035F9074602F0BBFC9FED4F
:100A20004F0B53EC102B02F0E9FA41EC180B53EC8E
:100A3000192B51EC180B02F0E1FA41EC180BB0EE57
:100A4000480AF0EE680A02B0BDEC068BBDE8F08102
:100A500010B598B030210CA802F037F93021684663
:100A600002F033F9002400BF30E0611CC8B2FFF788
:100A700080FF0CA800EBC40080ED000B54B90CA85B
:100A800000EBC40090ED000B684600EBC40080ED65
:100A9000000B19E09DED0E2BB0EE420AF0EE620A5B
:100AA000601E694601EBC00090ED002BB0EE421ACB
:100AB000F0EE621A53EC102B51EC110B02F0EAF934
:100AC0006A4602EBC40203C2601CC4B2062CCCDB33
:100AD00000241DE00CA800EBC40090ED001BB0EE5C
:100AE000410AF0EE610AA01CC1B2002000F007FA32
:100AF000684600EBC40090ED001BB0EE410AF0EE3A
:100B0000610AA01CC1B23C2000F0F9F9601CC4B21B
:100B1000062CDFDB18B010BD480000204F0000207D
:100B200058000020000000203800002000000000D5
:100B30000000B0400000000000408F40FCA9F1D24E
:100B40004D62503F0000000000000000333333339B
:100B50003333E33F333333333333D33F00000000C9
:100B600080842E417CB504460D461646C4F3090028
:100B7000002839D1A012A0F580108038092833D27E
:100B8000DFE800F0050A0F14191E23282D000121AB
:100B9000084601F0F7FC28E00121022001F0F2FCF8
:100BA00023E00121042001F0EDFC1EE001210820DA
:100BB00001F0E8FC19E00121102001F0E3FC14E051
:100BC0000121202001F0DEFC0FE00121402001F096
:100BD000D9FC0AE00121802001F0D4FC05E00121CC
:100BE000080201F0CFFC00E000BF00BF00958DF8C7
:100BF000046000208DF8060001208DF80700022017
:100C00008DF805006946204601F01EFA2946204667
:100C100001F096FA7CBD10B501221146FE48FFF79F
:100C2000A1FF01220221FC48FFF79CFF01220821BD
:100C3000F948FFF797FF01220421F748FFF792FFD9
:100C400001221021F448FFF78DFF10BD1CB50121D2
:100C5000042001F097FC0420009000208DF804008F
:100C600003208DF8050001208DF807006946EB4848
:100C700001F0EAF91CBD10B5044600F038FF7820F9
:100C800000F0E1FF00F074FF402000F0DCFF00F016
:100C90006FFF204600F0D7FF00F06AFF00F049FF29
:100CA00010BD10B5044600F022FF782000F0CBFF05
:100CB00000F05EFF08B100BFFEE7002000F0C3FFB8
:100CC00000F056FF204600F0BEFF00F051FF00F09C
:100CD00030FF10BD70B505460C461CB12846FFF725
:100CE000CAFF02E02846FFF7DCFF70BD70B504467E
:100CF0000D4605F00701B031C8B20021FFF7EAFF49
:100D000004F00F000021FFF7E5FF102141EA141065
:100D10000021FFF7DFFF70BD10B500218D20FFF728
:100D2000D9FF00211420FFF7D5FF0021AF20FFF7E6
:100D3000D1FF10BD10B500218D20FFF7CBFF0021A2
:100D40001020FFF7C7FF0021AE20FFF7C3FF10BD43
:100D500070B5002419E004F1B001C8B20021FFF71A
:100D6000B9FF00210846FFF7B5FF00211020FFF76B
:100D7000B1FF002505E001210020FFF7ABFF681C53
:100D8000C5B2802DF7DB601CC4B2082CE3DB70BD5C
:100D90002DE9F04105460E4617464FF000080024A5
:100DA000A7F1200000F0FF087F2D02DD0025B01C18
:100DB000C6B231462846FFF799FF00240AE008EB47
:100DC0004801974A02EB4101085D0121FFF782FFCC
:100DD000601CC4B2062CF2DBBDE8F08110B50246FF
:100DE000012000E050430B00A1F10104E1B2F9D170
:100DF00010BD2DE9F0470646894690461D464FF046
:100E0000000A00242BE0281B401EC1B20A20FFF775
:100E1000E5FFB8FBF0F00A21B0FBF1F201FB12078D
:100E2000BAF1000F0ED1681EA0420BDD47B90721B1
:100E300001FB0461C8B230224946FFF7A9FF0CE06C
:100E40004FF0010A07F13001CAB2072101FB04612A
:100E5000C8B24946FFF79CFF00BF601CC4B2AC4259
:100E6000D1DBBDE8F0872DE9F04104460F46154679
:100E7000002600BF0DE0AA5D39462046FFF788FF37
:100E8000A01DC4B27A2C02DD0024B81CC7B2701CAD
:100E9000C6B2A85D0028EED1BDE8F0812DE9F04191
:100EA00080460E461546002731464046FFF71EFF96
:100EB00000240AE05B4A02EB8511085D0121FFF77F
:100EC00009FF781CC7B2601CC4B2102CF2DB701C86
:100ED000C1B24046FFF70AFF00240CE06900491C3C
:100EE000504A02EB4111085D0121FFF7F3FE781C27
:100EF000C7B2601CC4B2102CF0DBBDE8F0812DE954
:100F0000F0472DED088B04460F46B0EE408AF0EE18
:100F1000608A4FF000089FED440B53EC102B51EC0E
:100F2000180B02F09BFA0AD251EC180B01F0A5FF46
:100F300041EC180B3EA239462046FFF794FFE01D16
:100F4000C4B2792C02DD0024B81CC7B2002551ECD4
:100F5000180B02F0DBF9064604E00A20B6FBF0F6B7
:100F6000681CC5B2002EF8D14FF00608281D00FB02
:100F700008F0C0F18000A04202DA0024B81CC7B219
:100F800051EC180B02F092F981462B464A4639463D
:100F90002046FFF72EFF05FB0840C4B225A23946C4
:100FA0002046FFF760FF04EB0800C4B2304602F0B1
:100FB00042FA41EC1B0B53EC182B02F089FB41EC7D
:100FC0001A0B9FED1D0B53EC102B02F083FA41EC32
:100FD000190B02F06BF9814605234A463946204633
:100FE000FFF707FFBDEC088BBDE8F08710B500F0F8
:100FF0005FFD0021AE20FFF76DFE00210846FFF7E0
:1010000069FE00211020FFF765FE00214020FFF758
:1010100061FE0021812013E0000C02400008024024
:10102000C63800085C00002000000000000000003E
:101030002D0000002E00000000000000006AF840B3
:10104000FFF748FE0021CF20FFF744FE0021A1203A
:10105000FFF740FE0021C820FFF73CFE0021A6203C
:10106000FFF738FE0021A820FFF734FE00213F20C3
:10107000FFF730FE0021D320FFF72CFE00210846A9
:10108000FFF728FE0021D520FFF724FE0021802055
:10109000FFF720FE0021D920FFF71CFE0021F120E0
:1010A000FFF718FE0021DA20FFF714FE00211220BE
:1010B000FFF710FE0021DB20FFF70CFE002140208F
:1010C000FFF708FE00212020FFF704FE0021022088
:1010D000FFF700FE00218D20FFF7FCFD002114200A
:1010E000FFF7F8FD0021A420FFF7F4FD0021A62062
:1010F000FFF7F0FD0021AF20FFF7ECFDFFF728FE22
:1011000000210846FFF7F2FD10BD000000B587B0D2
:101110000121880501F07FFA0121022001F032FA55
:1011200004220A215A4801F01AF804220B215848D7
:1011300001F015F84FF44060019002208DF809008D
:101140008DF8080001208DF80A008DF80B0001A928
:101150004F4800F079FF4F4801F068FB0020ADF8E0
:1011600010004BF6FF70ADF812004FF48060ADF840
:1011700016000001ADF818004748039001214548CA
:1011800001F0F9FB03A9434801F079FB0121414833
:1011900001F034FC07B000BD70B504460D4604F103
:1011A00020004FF6FF7101EA40060121394801F0A5
:1011B00025FC00BF4FF40031364801F019FD00282E
:1011C000F8D10121334801F0F9FB022000F006FEBE
:1011D00000BF32492F4801F0E9FC0028F9D0F1B2F4
:1011E00000222C4801F002FC00BF2D49294801F0E3
:1011F000DDFC0028F9D02946264801F07BFC00BF21
:101200002749891C234801F0D1FC0028F8D001218E
:10121000204801F0DFFB70BD70B50446002500BF1B
:101220004FF400311B4801F0E3FC0028F8D1012104
:10123000184801F0C3FB00BF1849164801F0B6FC7E
:101240000028F9D004F120004006010E01221148C7
:1012500001F0CCFB00BF1149491C0E4801F0A6FC6F
:101260000028F8D000BF0D493F310A4801F09EFC2C
:101270000028F8D0074801F03FFC0546002105484A
:1012800001F010FC0121034801F0A4FB284670BDC9
:101290000004024000580040801A060001000300CC
:1012A0008200070010B50121080201F01AFA00219E
:1012B0004FF4807001F015FA10BD30B502460020E1
:1012C00000235068F84C20400D790C6844EA05244E
:1012D000204350609068F54C2040D1E903542C43E2
:1012E0008D682C434D7944EA450420439060D06AD0
:1012F00020F470000C7D641EE4B2234340EA0350E6
:10130000D06230BD00210160017141718160C16016
:1013100001610121017570470021E54A1168E54A24
:101320001140D0E900231A4383681A43C3681A4363
:101330001143E14AC2F80413704700210160416083
:101340008160C160704721B1826842F00102826011
:1013500003E0826822F00102826070470A460021A1
:101360004168D64B19401143416070474162826227
:1013700070470A460021416821F01F011143416076
:10138000704738B1CA49096841F40001CA4AC2F835
:10139000041306E0C649096821F40001C64AC2F8F0
:1013A0000413704738B1C249096841F48001C24A48
:1013B000C2F8041306E0BE49096821F48001BE4A60
:1013C000C2F804137047F0B504460D460020002112
:1013D000092D11DDE068A5F10A0606EB4607072690
:1013E00006FA07F18843A5F10A0606EB460603FA5A
:1013F00006F10843E0600CE0206905EB450707268D
:1014000006FA07F1884305EB450603FA06F108439F
:101410002061072A0FDA606B561E06EB86071F262F
:1014200006FA07F18843561E06EB860605FA06F112
:101430000843606322E00D2A0FDA206BD61F06EB0B
:1014400086071F2606FA07F18843D61F06EB860695
:1014500005FA06F10843206310E0E06AA2F10D06E8
:1014600006EB86071F2606FA07F18843A2F10D0650
:1014700006EB860605FA06F10843E062F0BD8168D6
:1014800041F0804181607047014600208A6802F087
:1014900080420AB1012000E00020704721B182683B
:1014A00042F48062826003E0826822F4806282609B
:1014B000704721B1826842F00202826003E08268D4
:1014C00022F002028260704710B50A460021002314
:1014D000416821F46041531E41EA4331416010BD2F
:1014E00021B1426842F40062426003E0426822F4A3
:1014F0000062426070470146C86C80B270476C4819
:10150000001D0068704721B1826842F480728260D9
:1015100003E0826822F480728260704721B18268A1
:1015200042F40072826003E0826822F400728260FA
:10153000704738B15E49096841F400515E4AC2F80B
:10154000041306E05A49096821F400515A4AC2F8C6
:1015500004137047F0B5044615460020002200260B
:10156000092911DDE068A1F10A0707EB470C0727FD
:1015700007FA0CF29043A1F10A0707EB470703FAB9
:1015800007F21043E0600CE0206901EB410C0727F3
:1015900007FA0CF2904301EB410703FA07F21043FC
:1015A0002061A06BC0F30156EF1C06F1010CA7EB04
:1015B0000C0707EB870C1F2707FA0CF29043EF1C70
:1015C00006F1010CA7EB0C0707EB870701FA07F2FE
:1015D0001043A063F0BD10B50A4600210023816BC3
:1015E00021F44011531E41EA0351816310BD08B537
:1015F000002300930090009B0B440093009B1A6013
:1016000008BD0A460021816821F4702111438160E0
:1016100070470A460021816821F44011114381601E
:101620007047816841F48001816070470146002065
:101630008A6802F480020AB1012000E000207047AD
:1016400021B1426842F48062426003E0426822F4C1
:1016500080624260704721B1426842F48052426029
:1016600003E0426822F480524260704708B50246A7
:1016700000200090009201F12800009B1844009087
:101680000098006880B208BD10B50B460021D9B2A1
:10169000012404FA01F11AB144680C43446002E0E9
:1016A00044688C43446010BDFFFEFFFCFDF7FFC0A3
:1016B00004230140E030FCFF00200140FFFD3FFF1C
:1016C0000246002013680B400BB1012000E000200F
:1016D0007047CA430260704770B50246002000237D
:1016E00000240B12556801268E4005EA0604156891
:1016F0001D4015B10CB1012000E0002070BD00229A
:101700000A12D34303607047016821F001010160B0
:101710000021016041608160C1600161212141615E
:10172000DB49884204D13D21D94A103A91608CE0CE
:10173000D7491831884205D14FF47461D44A103A20
:10174000916082E0D2493031884205D14FF4741162
:10175000CF4A103A916078E0CD494831884205D1AE
:101760004FF07461CA4A103A91606EE0C849603126
:10177000884204D1C749C64A103AD16065E0C449DD
:101780007831884204D1C449C14A103AD1605CE042
:10179000BF499031884204D1C049BD4A103AD16056
:1017A00053E0BB49A831884205D14FF03D51B84ABA
:1017B000103AD16049E0BA49884204D13D21B84A83
:1017C000083A116041E0B6491831884205D14FF41A
:1017D0007461B34A083A116037E0B1493031884248
:1017E00005D14FF47411AE4A083A11602DE0AC49AE
:1017F0004831884205D14FF07461A94A083A116016
:1018000023E0A7496031884204D1A249A44A121FAB
:1018100011601AE0A2497831884204D19E49A04A59
:10182000121F116011E09E499031884204D19B49FA
:101830009B4A121F116008E09949A831884204D1DF
:101840004FF03D51964A121F1160704710B50022AB
:101850000268944B1A40CC680B6823434C692343BD
:101860008C692343CC6923430C6A23434C6A23438A
:101870008C6A23434C6B23438C6B23431A430260D3
:10188000426922F00702D1E90B3423431A43426133
:101890000B6943604B6883608B68C36010BD002197
:1018A000016041608160C160016141618161C1612C
:1018B000016241628162C162016341638163704779
:1018C00021B1026842F00102026003E0026822F0E6
:1018D00001020260704721B1026842F400420260D6
:1018E00003E0026822F400420260704721B10268FE
:1018F00042F02002026003E0026822F0200202604F
:101900007047416070470146486880B2704722B115
:10191000036843F40023036003E0036823F4002317
:1019200003600161704721B1026842F480220260C5
:1019300003E0026822F48022026070470AB101616C
:1019400000E0C1607047014600200A6802F40022EE
:101950000AB1012000E000207047014600200A681B
:1019600002F001020AB1012000E0002070470146A8
:1019700000204A6902F03800704730B503460A4635
:1019800000200024464DAB4202D24149103901E00B
:101990004349103902F000550DB14C6800E00C6865
:1019A000414D2C4004EA02050DB1012000E0002069
:1019B00030BD02463A4B9A4202D23548103801E017
:1019C0003748103801F000531BB1374B0B40C36050
:1019D00002E0354B0B408360704710B501F0800387
:1019E0004BB122B1436943F08003436103E0436993
:1019F00023F08003436180290BD02AB1036801F0F2
:101A00001E042343036004E0036801F01E04A343A3
:101A1000036010BD70B50246002000240025204E52
:101A2000B24202D21A4B103B01E01D4B103B1F4E3D
:101A30000E4036B11E2606EAD124166806EA0405D1
:101A400002E0566906F0800501F000560EB15C68B0
:101A500000E01C68144E344004EA010616B10DB1D2
:101A6000012000E0002070BD02460D4B9A4202D2D8
:101A70000748103801E00A48103801F000531BB144
:101A8000094B0B40C36002E0074B0B40836070477B
:101A9000106002403D000020400F002000003D206B
:101AA000106402403F801CF07D0F7D0F3C0F3C0F07
:101AB0001CB50121042000F065FD4FF4406000904A
:101AC00001208DF8040000208DF8060002208DF81A
:101AD000050001208DF8070069468C4800F0B4FA33
:101AE00001208B4908608B49C1F8A8021CBD10B5C4
:101AF0008648006820F44010844908600846006861
:101B000040F48010086001208149091F0860814964
:101B1000C1F8AC02022000F019F900207C49091F2D
:101B20000860022000F012F900207A49C1F8AC02E6
:101B300010BD10B57548006820F440107349086066
:101B40000846006840F48010086000207049086072
:101B50007049C1F8A802022000F0F8F801206C4991
:101B600008606C49C1F8A802022000F0EFF810BD2F
:101B700010B500246548006820F4401063490860EF
:101B800008460068086001206149091F086000F0EC
:101B9000DDF801205F49C1F8AC0200F0D7F807E09A
:101BA000601CC4B2FA2C03DDFFF7C3FF012010BD97
:101BB0005748843800680028F2D15549086000BFB2
:101BC000F5E710B50020524908605048006820F43D
:101BD00040104E4908600846006840F480100860D4
:101BE00000204C49C1F8A802022000F0AFF8012003
:101BF00047490860022000F0A9F800204549C1F8D3
:101C0000AC0210BD10B50020414908603F48006893
:101C100020F440103D4908600846006840F48010F8
:101C2000086001203B49C1F8A802022000F08EF8AC
:101C3000012037490860022000F088F8002035496B
:101C4000C1F8AC0210BD70B504463048006820F4FD
:101C500040102E4908600846006840F48010086073
:101C600000202B49086000251EE0E00920B101207A
:101C70002749091F086003E000202549091F086063
:101C80006006040E022000F061F80120204908607F
:101C9000022000F05BF800201E49C1F8AC020220CF
:101CA00000F054F8681CC5B2082DDEDB70BD70B5BD
:101CB000054600241548006820F4401013490860C8
:101CC000084600680860002616E0002010490860F9
:101CD000022000F03BF801200E49C1F8AC0260067A
:101CE000040E0B488438006808B1601CC4B202209E
:101CF00000F02CF8701CC6B2082EE6DB15B9FFF711
:101D000081FF01E0FFF75DFF204670BD0008024043
:101D1000AC0241420000414210B504466FF004009D
:101D200000F0EEF8E11704EB5171C1F3C701394A35
:101D300011701046007800EB4001C1EBC0104FF667
:101D4000FF7101EAC0003449088010BD0146314AE4
:101D500012784A434FF0E0235A6100229A611A46F2
:101D6000126942F001021A6100BF4FF0E0221069CF
:101D700000F001021AB100F48032002AF5D04FF0D1
:101D8000E022126922F001024FF0E0231A610022E2
:101D90009A6170470146204A12884A434FF0E02377
:101DA0005A6100229A611A46126942F001021A61D0
:101DB00000BF4FF0E022106900F001021AB100F4F8
:101DC0008032002AF5D04FF0E022126922F00102A1
:101DD0004FF0E0231A6100229A61704770B5044603
:101DE0004FF4077094FBF0F0C6B24FF4077094FB09
:101DF000F0F100FB114085B205E04FF40770FFF7EA
:101E0000C9FF701EC6B2002EF7D115B12846FFF7E4
:101E1000C1FF70BD1C0200201E020020094880473F
:101E200009480047FEE7FEE7FEE7FEE7FEE7FEE7BC
:101E3000FEE7FEE7FEE7FEE704480549054A064BD4
:101E4000704700007903000889010008580300204A
:101E50005809002058050020580500203249014348
:101E6000324A1160704770B5002100230F22C478F8
:101E70001CB32E4C246804F4E064C4F5E064C4F39D
:101E80000721C1F10404E3B20A4144789C40E1B265
:101E90008478144021430C07210E254C05786155A8
:101EA000047804F01F050124AC4005786D11AD00E5
:101EB00005F1E025C5F8004109E0047804F01F05AC
:101EC0000124AC401B4D0678761145F8264070BDC4
:101ED000194A0A400243154B1B1F1A60704739B15B
:101EE000124A121D12680243104B1B1D1A6006E0B5
:101EF0000E4A121D126882430C4B1B1D1A6070475C
:101F0000042808D14FF0E021096941F004014FF0A5
:101F1000E022116107E04FF0E021096921F004019E
:101F20004FF0E022116170470000FA050CED00E06F
:101F300000E400E080E100E080FFFF1F10B50446F0
:101F40009848844208D10121084600F086FB002110
:101F5000012000F082FB76E09348844208D1012101
:101F6000022000F07AFB0021022000F076FB6AE0FC
:101F70008E48844208D10121042000F06EFB00212C
:101F8000042000F06AFB5EE08948844208D1012108
:101F9000082000F062FB0021082000F05EFB52E008
:101FA0008448844208D10121102000F056FB002112
:101FB000102000F052FB46E07F48844208D1012106
:101FC000202000F04AFB0021202000F046FB3AE0F0
:101FD0007A48844208D10121402000F03EFB0021D4
:101FE000402000F03AFB2EE07548844208D10121E0
:101FF000802000F032FB0021802000F02EFB22E048
:102000007048844208D10121801500F026FB002190
:10201000A01500F022FB16E06B48844208D1012194
:10202000401500F01AFB0021601500F016FB0AE0D5
:102030006648844207D10121001500F00EFB002103
:10204000201500F00AFB10BDF0B50A460021002360
:10205000002400BF3DE0012505FA01F3156805EAFB
:1020600003049C4234D105684F000326BE40B543AB
:10207000056015794E00B540066835430560157951
:10208000012D02D01579022D16D185684F00032647
:10209000BE40B543856055794E00B54086683543EE
:1020A0008560456801268E40B54345604568967950
:1020B0008E40B6B235434560C5684F000326BE402A
:1020C000B543C560D5794E00B540C6683543C56097
:1020D000491C1029BFD3F0BD4FF6FF7101600021EC
:1020E000017141718171C171704708B54FF480323F
:1020F0000092009A0A430092009AC261C161009A5C
:10210000C261C2690092C269009208BD0246002005
:1021100013690B400BB1012000E00020704701461D
:10212000086980B270470246002053690B400BB12A
:10213000012000E0002070470146486980B27047E6
:1021400001837047418370470AB1018300E04183F6
:1021500070474161704742694A4042617047F0B53B
:10216000002300244D07ED0E02FA05F3CE1000F116
:10217000200555F826504E07F70E0F26BE40B543F2
:10218000CF1000F1200646F82750CE1000F12005B0
:1021900055F8265045EA0304CE1000F1200545F815
:1021A0002640F0BD0000024000040240000802404A
:1021B000000C0240001002400014024000180240CF
:1021C000001C02400020024000240240002802407F
:1021D000F948006840F00100F74908600020F6491E
:1021E00008310860F4480068F4490840F249086082
:1021F000F348091D0860F348EF4984310860F0484E
:102200001038091D0860EC48006820F48020EA4975
:1022100008600020E8490C310860E7498C3108600B
:1022200070470021E44A921C1170114608707047F3
:1022300010B501460022002300204A11012A02D1D4
:10224000DD4C236808E0022A03D1DB4C703423689C
:1022500002E0D94C7434236801F01F020124944039
:102260001C400CB1012000E0002010BD38B500205A
:1022700000900024002500BF3120FFF7D9FF05465C
:102280000098401C00900098B0F5A04F01D0002DA0
:10229000F2D03120FFF7CCFF08B1012400E0002488
:1022A000204638BD01460020C34A106820F0F800DF
:1022B00040EAC10010607047C349086070470021C0
:1022C000BD4A703211701170012802D004280AD161
:1022D00004E00121B84A7032117005E00521B64AC8
:1022E0007032117000E000BF00BF7047B74908604E
:1022F000704770B5049C41EA82150126C6EB53066F
:1023000045EA0645054345EA0465AB4E361D356092
:1023100070BDAD4908667047820142EA0172A64B62
:1023200084331A607047A8498866704710B58301E6
:1023300043EA016343EA02739F4C8834236010BD73
:10234000A14908677047A049C86470470246002049
:10235000994B0833186820F0EC6042EA01031843F7
:10236000954B08331860704702460020924B0833A3
:10237000186820F0784042EA010318438E4B083376
:1023800018607047014600208B4A0832106820F020
:10239000030008431060704787480830006800F069
:1023A0000C00704701460020834A0832106820F074
:1023B000F000084310607047014600207E4A083252
:1023C000106820F4E0500843106070470146002078
:1023D000794A0832106820F4604040EAC100106079
:1023E0007047F0B5002100220024022500260223B8
:1023F000714F08373F6807F00C0121B1042905D05F
:10240000082937D105E0724F076036E0714F076049
:1024100033E0694F3F1D3F68C7F38056664F3F1D4D
:102420003F6807F03F036EB16A4FB7FBF3F7DFF881
:1024300088C10CF1040CDCF800C0CCF3881C07FB4D
:102440000CF40CE0624FB7FBF3F7DFF86CC10CF152
:10245000040CDCF800C0CCF3881C07FB0CF4564FCE
:102460003F1D3F68C7F301477F1C7D00B4FBF5F7B4
:10247000076002E0564F076000BF00BF4E4F0837AD
:102480003F6807F0F0010909534F7A5C0768D740AD
:102490004760494F08373F6807F4E051890A4E4FBB
:1024A0007A5C4768D7408760434F08373F6807F436
:1024B0006041490B484F7A5C4768D740C760F0BD20
:1024C000002100F44072B2F5407F0AD13A4A083246
:1024D000116821F4F811414A02401143364A08328A
:1024E0001160354A70321268C0F30B031A43324B45
:1024F00070331A6070473549443908607047334972
:10250000403908607047364908607047014600202E
:10251000294A8C32106820F01F004A1E1043264AB8
:102520008C321060704701460020234A8C321068BC
:1025300020F4F8504A1E40EA02201F4A8C321060F4
:102540007047014600201C4A8C32106820F440106D
:1025500008431060704701460020174A8C3210680B
:1025600020F4400008431060704701460020124AE2
:102570008C32106820F440300843106070471949CD
:102580000860704739B10C4A3032126802430A4B76
:1025900030331A6006E0084A303212688243064B34
:1025A00030331A607047F9B1034A3432126802437B
:1025B000014B34331A601CE000380240FFFFF6EA9A
:1025C000103000240030002000004742800E4742B7
:1025D0000024F40000127A0020020020FFFCFF0F0C
:1025E0005C014742E01147428F4A126882438E4B9A
:1025F0001A60704739B18C4A121D126802438A4B27
:102600001B1D1A6006E0884A121D12688243864B21
:102610001B1D1A60704739B1834A0C32126802439D
:10262000814B0C331A6006E07F4A0C3212688243F9
:102630007D4B0C331A60704739B17B4A10321268F7
:102640000243794B10331A6006E0774A1032126861
:102650008243754B10331A60704739B1724A243A7D
:1026600012680243704B243B1A6006E06E4A243A1B
:10267000126882436C4B243B1A60704739B16A4A36
:10268000203A12680243684B203B1A6006E0664A13
:10269000203A12688243644B203B1A60704739B17C
:1026A000614A1C3A126802435F4B1C3B1A6006E009
:1026B0005D4A1C3A126882435B4B1C3B1A607047B0
:1026C00039B1594A143A12680243574B143B1A6005
:1026D00006E0554A143A12688243534B143B1A6081
:1026E000704739B1504A103A126802434E4B103BC2
:1026F0001A6006E04C4A103A126882434A4B103B7B
:102700001A60704739B1484A1C3212680243464B7E
:102710001C331A6006E0444A1C3212688243424B62
:102720001C331A60704739B13F4A203212680243A5
:102730003D4B20331A6006E03B4A20321268824348
:10274000394B20331A60704739B1374A2432126846
:102750000243354B24331A6006E0334A24321268B0
:102760008243314B24331A60704739B12E4A2C32E0
:10277000126802432C4B2C331A6006E02A4A2C3292
:1027800012688243284B2C331A60704739B1264AAD
:10279000303212680243244B30331A6006E0224A7A
:1027A000303212688243204B30331A607047012860
:1027B00008D11D493C31096841F008011A4A3C32F0
:1027C000116007E018493C31096821F00801164AF8
:1027D0003C321160704739B1134A273A12780243EC
:1027E000114B273B1A7006E00F4A273A12788243B2
:1027F0000D4B273B1A7070470B484030006840F083
:102800008070094940310860704701460020064A3F
:10281000283A12680A400AB1012000E000207047FF
:1028200001492639087070473438024010B5044613
:10283000F848844209D101214805FFF741FF0021F2
:102840004FF40010FFF73CFF18E0F348844209D131
:1028500001218805FFF734FF00214FF48000FFF7C6
:102860002FFF0BE0ED48844208D10121C805FFF796
:1028700027FF00214FF40000FFF722FF10BD2DE9D4
:10288000FF4704460D460026B1460427DFF8908333
:10289000A6884FF6C07006406846FFF7A2FDDDF837
:1028A0000880E048B8FBF0F01FFA80F946EA090614
:1028B000A68020884FF6FE71084020800026DA4965
:1028C000286888420CD828684000B8FBF0F087B22E
:1028D000042F00DA04273E4309F10100208427E099
:1028E000E8884BF6FF71884206D1286800EB40006B
:1028F000B8FBF0F087B209E0286800EBC00101EBFB
:102900000010B8FBF0F087B247F48047C7F30B0024
:1029100008B947F0010747F4004006434FF49670AA
:1029200009FB00F04FF47A7190FBF1F0401C208419
:10293000A683208840F00100208026884FF6F530DD
:102940000640A8886989084306432680A889298902
:1029500008432081BDE8FF8741F2883101600021F2
:1029600081804BF6FF71C1800021018141814FF4CC
:1029700080418181704721B1028842F001020280CA
:1029800004E002884FF6FE731A400280704729B1B6
:10299000828C4FF6EF731A40828403E0828C42F0FF
:1029A0001002828470470A460021818C4FF6F07332
:1029B000194002F00F0319438184704721B1028846
:1029C00042F48072028004E002884FF6FF631A40EE
:1029D0000280704721B1028842F40072028004E054
:1029E00002884FF6FF531A400280704712B141F03F
:1029F000010101E001F0FE010182704721B102886E
:102A000042F48062028004E002884FF6FF331A40ED
:102A1000028070470A46002181894FF601731940F0
:102A200002F0FE0319438181704721B1828942F08F
:102A30000102828104E082894FF6FE731A4082818E
:102A4000704721B1028842F04002028004E002880F
:102A50004FF6BF731A400280704721B1028842F4DA
:102A60000042028003E00288C2F30E020280704737
:102A700021B9028842F08002028004E002884FF609
:102A80007F731A4002807047B1F5804F05D0828B6A
:102A90004BF6FF731A40828303E0828B42F480423C
:102AA00082837047B1F5006F04D1028842F400625E
:102AB000028004E002884FF2FF731A4002807047E0
:102AC000B1F5005F04D1028842F40052028004E0B4
:102AD00002884DF6FF731A400280704721B10288C8
:102AE00042F01002028004E002884FF6EF731A40B1
:102AF00002807047018270470146088AC0B2704761
:102B000021B1028842F48052028004E002884EF62D
:102B1000FF731A4002807047B1F5006F04D102883C
:102B200042F40062028004E002884FF2FF731A4010
:102B30000280704721B1028842F02002028004E046
:102B400002884FF6DF731A40028070470146088BF7
:102B50000012704721B1828842F40062828004E052
:102B600082884FF2FF731A408280704721B18288B9
:102B700042F48052828004E082884EF6FF731A404D
:102B80008280704708B502460020009000920098AD
:102B9000084400900098008808BD1AB183880B4350
:102BA000838002E083888B438380704770B5024640
:102BB0000024002500230020958A138B1B0445EA7E
:102BC000030626F07F4404EA01068E4201D101206B
:102BD00000E0002070BD10B5014600200023002257
:102BE0008B8A0A8B120443EA020424F07F4010BD52
:102BF0000CB50246002000230193009300920B0FB6
:102C0000019321F07F41019B83B1009B143300931A
:102C100010E000000054004000580040005C0040FC
:102C200000127A0040420F00A0860100090C009BB0
:102C300018330093009B1B680B400BB1012000E090
:102C400000200CBD002221F07F42D34383827047D5
:102C500030B5024600200023948801F0E06504EAC4
:102C6000154321F07F41948A0C4014B10BB101202F
:102C700000E0002030BD002221F07F42D343838258
:102C8000704710B54C1084EA530404D54042C1F19A
:102C9000000138BF491E1B4204D55242C3F1000354
:102CA00038BF5B1E00F03BF814F0804F04D0404268
:102CB000C1F1000138BF491E14F0004F04D0524248
:102CC000C3F1000338BF5B1E10BD4FF0000200B51A
:102CD000134694469646203922BFA0E80C50A0E83F
:102CE0000C50B1F12001BFF4F7AF090728BFA0E8ED
:102CF0000C5048BF0CC05DF804EB890028BF40F8B9
:102D0000042B08BF704748BF20F8022B11F0804FFA
:102D100018BF00F8012B704770477047704753EA9F
:102D2000020C00F069802DE9F04B4FF00006002BFB
:102D30001FBFB3FA83F503FA05F424FA05F65E40E3
:102D400012BF1643B2FA82F502FA05F4C5F1200566
:102D50001EBF22FA05FC44EA0C04203556EA044C56
:102D60004FEA144418BF641C4FF000084FF00009EC
:102D7000904271EB030C39D3002919BFB1FA81F7E6
:102D800001FA07F6B0FA80F700FA07F6C7F1200754
:102D90001EBF20FA07FC46EA0C062037B6FBF4FCFF
:102DA000A7EB0507103F07F01F0BCBF120060CFA2D
:102DB0000BFB2CFA06F644BFB3460026202FA4BF17
:102DC0005E464FF0000B5BEA060C08BF4FF0010BAC
:102DD00019EB0B09ABFB027C48EB0608C01B06FB9A
:102DE00002CC0BFB03CC71EB0C01C1E70B46024696
:102DF00041464846BDE8F08B13B54FF000004FF058
:102E00000001AFF30080BDE81C407047754600F03C
:102E100029F8AE4605006946534620F0070085466E
:102E200018B020B5FFF708F8BDE820404FF00006C5
:102E30004FF000074FF000084FF0000B21F00701A2
:102E4000AC46ACE8C009ACE8C009ACE8C009ACE8E5
:102E5000C0098D4670470446AFF300802046FDF759
:102E6000FCF9000000487047F802002001491820D2
:102E7000ABBEFEE726000200704781F000417047BC
:102E800080F00040704721F00041704720F0004082
:102E90007047000010B591EA030F48BF83F000436C
:102EA00000F12A84841A71EB030C05D2121943EB4A
:102EB0000C03001B61EB0C01DFF824E14FEA115415
:102EC000A4EB135C1EEA430F18BF9EEA445F73D065
:102ED00023EA0E03DCF1200E21EA045143F48013AF
:102EE00032D322FA0CFE10EB0E0023FA0CFE41EB5B
:102EF0000E01CCF1200E03FA0EFE10EB0E0051F184
:102F00000001B1F5801FCCF1200E32D201EB04514B
:102F100012FA0EF2BDE8104058BF7047401C38BF8F
:102F20005FEA420218BF7047002814BF20F001007A
:102F300041F100014FEA410313F5001F38BF70470C
:102F4000A1F1C04100F0BEBB012A43EB0302ACF18A
:102F5000200CDCF11F0E32BF4FF0000E23FA0CF3F1
:102F600010EB030041EB0451B4EB115FD0D0A1EBA7
:102F7000045101F5801149085FEA300001EB04516A
:102F80000ED350F1000038BF12FA0EFE08D1BDE892
:102F90001040C9E7401C38BF5FEA4202CAD1C3E70C
:102FA000BDE810404FEA410313F5001F38BF7047DA
:102FB000A1F1C04100F086BB9EEA445F08D011EA4F
:102FC0005E0FBDE8104004BF01F0004100207047D3
:102FD000BDE8104070B500F027FB00BF64FBBE3EAB
:102FE0000000E0FF491058BFC1F140415B1058BFDD
:102FF000C3F140438B42EFF3008070472DE9C0419D
:1030000030B4DFF8A0C23CEA111418BF3CEA131434
:1030100000F0EC8081EA03051CEA111444EAD5743F
:1030200018BF1CEA131500F0C780A4EB05044FF08D
:10303000004545EAC12145EAC32341EA505143EA2C
:10304000525304F17F74994204F500344FEAC020D2
:103050004FEAC22208BF904200F09C804FEA1365FD
:103060000FF24016765D4FEA134506FB05F7C7F1F0
:10307000807706FB07F74FEAD737A7FB036876424E
:10308000C8F58038A7FB06CE38BFA8F1010807FBBA
:1030900008E64FF0000EA6FB028CE6FB03CEDCF147
:1030A000000CCEF1004E38BFAEF1010EA6FB0C585D
:1030B0004FF000074FF00005E6FB0E87A1FB08C6A6
:1030C000A0FB07CE16EB0E0645F10005E1FB0765F8
:1030D00015F1E04E7EBFA4F580345FEA46066D41EF
:1030E00016F1800745F100054FEA17274FEA0666FB
:1030F00047EA0567A6F1DE46B6F1805F4FEA15257F
:103100001FD9384624F0010C05EBC471BCF1FE6FE9
:1031100001EB0C1102D8F0BCBDE8008124425CBF79
:1031200001F5801E9EEAC47F02D4F0BCBDE8008198
:10313000244238D4F0BCA1F1C041BDE8004100F008
:10314000C1BA4FEAD22242EA43524FEAD323A7FB45
:1031500002864FEAD02040EA415007FB03661EEA90
:103160000E0F4FEAD12105FB026658BFA6EB0056B1
:10317000B6EB00564FEA520E4EEAC37E18EB0E0E27
:1031800056EB530EBDD518EB02085E417F1C55F17E
:103190000005B6E74FF480154FF000074FF000062A
:1031A0004FF00008ADE7F0BC4FF0000001F1C04166
:1031B00001F00041BDE8008111EA0C1F0CEA131573
:1031C00000D00CE013EA0C1F00F025804FF0000047
:1031D000F0BC81EA030101F00041BDE80081F0BCD0
:1031E00081EA0301BDE8004100F06CBAF0BCBDE823
:1031F000004170B500F018FA097EFC3E00F007B8F7
:1032000081EA03014FF0000001F00041704781EABC
:10321000030100F057BAF0BC4FF000002249BDE8AE
:1032200000417047FFFDFBF9F7F5F4F2F0EEEDEB2E
:10323000E9E8E6E4E3E1E0DEDDDBDAD8D7D5D4D3B4
:10324000D1D0CFCDCCCBCAC8C7C6C5C4C2C1C0BF00
:10325000BEBDBCBBBAB9B8B7B6B5B4B3B2B1B0AF06
:10326000AEADACABAAA9A8A8A7A6A5A4A3A3A2A1EA
:10327000A09F9F9E9D9C9C9B9A99999897979695A5
:1032800095949393929191908F8F8E8E8D8C8C8B41
:103290008B8A8989888887878685858484838382C9
:1032A000828181800000FF070000F87F4FEA410320
:1032B0004FEA5353A3F58063D3F11E03C8BFD3F184
:1032C000210C0CDD4FF0004242EAC12242EA50528A
:1032D00032FA03FC8CEAE17CACEBE1707047102B16
:1032E000C4BF0020704703F5787CBCF1FF3F04D0D9
:1032F0006FF0004282EA2100704770B500F094F947
:103300004992248000207047F2E700004FEA1153F1
:10331000A3F58063D3F11E03A8BFD3F1200C08DB13
:103320004FF0004242EAC12252EA505232FA03F010
:10333000704709420BD4102BC4BF0020704703F51F
:10334000787CBCF1FF3F05D04FF0FF3070474FF065
:103350000000704770B500F067F900BF4992248003
:1033600000207047F0E710F0004248BF4042B0FA3A
:1033700080F310FA03F10AD0C3F11D0303F5806353
:103380004FEA415002EB035202EBD12170474FF05C
:10339000000070477FEAE17202D1101A62EB01016E
:1033A000B1FA81F30B3B24D3994012D1B0FA80F3E8
:1033B00010FA03F108BF7047C3F11D0303F5406322
:1033C00003EBC2234FEAD1224FEA415002EB0351F3
:1033D0007047C3F1200C20FA0CFC9840C3F1320373
:1033E00003F5406303EBC22341EA0C0101EB0351F7
:1033F000704710B5C3F1320CC3F10004C4F1200EC4
:103400000CF5406C0CEBC22201FA0EFC21FA04F11F
:1034100000FA0EF3E040BDE8104040EA0C0001EB7A
:10342000025138BF7047401C41F100015B0008BFEA
:1034300020F001007047B0FA80F310FA03F10AD0CF
:10344000C3F11D0303F580634FEA41504FEA035275
:1034500002EBD12170474FF00000704751EA030C96
:1034600017D41CF5801F58BFBCF5801F00F10680E3
:10347000994218BF704708BF9042704707D711F5AF
:10348000801F58BF13F5801F19D499427047894295
:1034900070471CF5801F08D5BCF5801FF7D58B42FF
:1034A00018BF704708BF824270474FF4001C1CEBE6
:1034B000410F38BF1CEB430F01D28B42704770B5F0
:1034C00000F0B2F8922449004FF000514FF08053C1
:1034D000FFF788BDDFF848C170B51CEA111E1EBF9A
:1034E0001CEA13159EEA0C0F95EA0C0F00F06F8092
:1034F00081EA030423EA4C134EEAD47E21EA4C11FC
:1035000041F4801143F48013AE44A1FB024CA0FBB4
:103510000365AEF17F7E361955EB0C05A1FB034C1C
:103520004CF10003A0FB021C16EB0C06654153F1A5
:103530000003094218BF46F0010613F4007F0BD1C7
:103540004FEA03314FEA0530340341EA155140EAAE
:1035500016506FF003020AE04FEAC3214FEAC5207C
:10356000F40241EA555140EA56506FF0020202EB74
:103570002E4201EB025585EACE710AD05FEA440C77
:1035800018BF24F0004450F1000041F1000120EA8E
:10359000D47040F2FE7C624500D270BDA84214BFD8
:1035A0004FF080444FF04044002E08BF0024BEF18D
:1035B000806FA8BFA1F1C041BDE8704080F2828059
:1035C0004FF0000001F1C04101F0004170479EEA58
:1035D0000C0F0CEA131518BF95EA0C0F06D04FF02C
:1035E000000081EA030E0EF0004170BD00F01CF8EF
:1035F0008900013E00F007B800F009B84FEA430C1B
:103600005FEA5C5C08D081EA030100F05BB84FEA36
:10361000410C5FEA5C5CF6D14FF000000149704755
:103620000000FF070000F87F0EF1020E2EF0030EDF
:103630005EF8046B364205D4012A43EB030515F509
:10364000001F12D8012841EB010C1CF5001F0CD8FB
:103650000ED14FEAD17C15F5001F0CEB4C0C0CF190
:10366000020C08BF4CEBD37C04E04FF0080C01E0E7
:103670004FEAD37C0CEB4C0526FA05F606F007065C
:10368000B6F1040C06D20EEB860CBDE870404CF08F
:10369000010C6047DFE80CF0090B02024FF000411B
:1036A0004FF00000A1F5002170BD19461046012819
:1036B00051EB010418BFD4F5001484BF002001F0C1
:1036C000004170BD0808A0F500114FEA31017047B4
:1036D00091EA030F10B581F000413FF5E3AB83F0B1
:1036E000004300F009B8000010B591EA030F48BF8D
:1036F00083F000433FF5D6AB841A71EB030C07D27D
:1037000012198CF0004C43EB0C03001B61EB0C0115
:10371000DFF8A4E14FEA1154A4EB135C1EEA430F57
:1037200018BF9EEA445F00F0B08023EA6E03524265
:1037300021EA0451C3EB6E0338BF5B1EDCF1200E9F
:1037400025D322FA0CFE10EB0E0043FA0CFE41EBDF
:103750000E01CCF1200E03FA0EFE10EB0E0051F11B
:103760000001CCF1200E29D412FA0EF201EB045123
:10377000BDE8104058BF7047401C1CBFB2F1004F5D
:10378000704700280CBF491C20F00100704712EB65
:10379000020E43EB030218BF4FF0010E4EEA420245
:1037A000ACF1200CDCF11E0E54D943FA0CFE10EBE8
:1037B0000E0051F1FF31CCF11E0ED5D50EF1010EE8
:1037C00012FA0EFE404141EB010101EB445C5FEA5D
:1037D0005C5C10D910EBDE7001EB045138BFBEF118
:1037E000004FBDE8104018BF704700280CBF491CAF
:1037F00020F00100704730D24FEAD42C11F50011AF
:1038000024F400641BD0B1FA81F20B3AA41AA41E6E
:10381000D2F12003914030FA03F31943904001EBB9
:10382000CC71002C01EB0451BDE81040A8BF7047DB
:1038300001F1C0414FF0000001F000417047B0FAC3
:1038400080F310FA03F100D110BDE41A173C4805CB
:10385000C90AE4E701EB045110BD491001EB045122
:10386000BDE810404FEA300002E04FF00001704721
:103870004A0008BF0042F8D0B2F5001F28BF7047C9
:1038800001F000414FF0000070479EEA445F07D00E
:1038900011EA5E0FBDE8104004BF00210020704710
:1038A000BDE8104070B5FFF7BFFE00BF40DFF63E39
:1038B00083F00041104670470000E0FF4FF0407079
:1038C000E1EE100A70470000000000000000002F29
:1038D000000000000700070000147F147F1400247C
:1038E0002A7F2A12006264081323003649552250A9
:1038F00000000503000000001C22410000004122DE
:103900001C000014083E08140008083E08080000C7
:1039100000A06000000808080808000060600000BF
:10392000002010080402003E5149453E0000427F3D
:103930004000004261514946002141454B31001889
:1039400014127F10002745454539003C4A4949304B
:103950000001710905030036494949360006494905
:10396000291E000036360000000056360000000810
:1039700014224100001414141414000041221408ED
:1039800000020151090600324959513E007C1211D2
:10399000127C007F49494936003E41414122007F67
:1039A0004141221C007F49494941007F0909090121
:1039B000003E4149497A007F0808087F0000417FA6
:1039C0004100002040413F01007F08142241007F58
:1039D00040404040007F020C027F007F0408107FBF
:1039E000003E4141413E007F09090906003E415128
:1039F000215E007F091929460046494949310001E5
:103A0000017F0101003F4040403F001F2040201F38
:103A1000003F4038403F00631408146300070870FB
:103A2000080700615149454300007F4141000055AE
:103A30002A552A55000041417F000004020102047A
:103A40000040404040400000010204000020545467
:103A50005478007F484444380038444444200038B7
:103A60004444487F00385454541800087E09010229
:103A70000018A4A4A47C007F080404780000447DFE
:103A80004000004080847D00007F1028440000003A
:103A9000417F4000007C04180478007C080404780E
:103AA00000384444443800FC2424241800182424FA
:103AB00018FC007C080404080048545454200004F6
:103AC0003F444020003C4040207C001C2040201C03
:103AD000003C4030403C004428102844001CA0A07A
:103AE000A07C004464544C441414141414140000B6
:103AF00000000000000000000000000000003F4047
:103B000000000000000000003000400030004000D5
:103B1000000009000BC03D000BC03D00090018C0AB
:103B200024407FE0224031800000180024C01B00A8
:103B30000D803240018003801C4027401C800740DC
:103B400000401000600000000000000000000000C5
:103B5000000000001F802040402000004020204046
:103B60001F8000000000090006001F8006000900F9
:103B70000000040004003F80040004000000001066
:103B800000600000000000000000040004000400C9
:103B900004000400000000000040000000000000DD
:103BA0000000002001C006003800400000001F8017
:103BB0002040204020401F800000000010403FC0F7
:103BC00000400000000018C021402240244018405E
:103BD000000010802040244024401B800000020090
:103BE0000D0011003FC0014000003C8024402440F3
:103BF0002440238000001F80244024403440038060
:103C000000003000200027C03800200000001B808A
:103C10002440244024401B8000001C0022C022407D
:103C200022401F800000000000000840000000004B
:103C30000000000000000460000000000000000020
:103C400004000A001100208040400900090009001A
:103C500009000900000000004040208011000A0017
:103C600004001800200023402400180000001F80DA
:103C70002040274029401F400000004007C0390075
:103C80000F0001C0004020403FC0244024401B8062
:103C900000001F8020402040204030800000204055
:103CA0003FC0204020401F80000020403FC02440F3
:103CB0002E4030C0000020403FC024402E00300085
:103CC00000000F001080204022403380020020407E
:103CD0003FC0040004003FC02040204020403FC0BF
:103CE0002040204000000060202020203FC0200015
:103CF000200020403FC024400B0030C02040204026
:103D00003FC020400040004000C03FC03C0003C016
:103D10003C003FC0000020403FC00C4023003FC09B
:103D200020001F802040204020401F8000002040B5
:103D30003FC024402400180000001F802140214083
:103D400020E01FA0000020403FC02440260019C0F2
:103D5000004018C024402440224031800000300040
:103D600020403FC020403000000020003F80004045
:103D700000403F80200020003E0001C007003800C6
:103D80002000380007C03C0007C038000000204079
:103D900039C0060039C0204000002000384007C06C
:103DA000384020000000304021C02640384020C06C
:103DB0000000000000007FE04020402000000000E4
:103DC00070000C00038000400000000040204020F4
:103DD0007FE0000000000000200040002000000004
:103DE0000000001000100010001000100010000073
:103DF00000004000000000000000000002800540BC
:103E0000054003C0004020003FC004400440038040
:103E10000000000003800440044006400000000051
:103E20000380044024403FC0004000000380054060
:103E3000054003400000000004401FC0244024400F
:103E40002000000002E005500550065004202040EC
:103E50003FC00440040003C000400000044027C0ED
:103E600000400000000000100010041027E00000D7
:103E7000000020403FC00140070004C00440204033
:103E800020403FC000400040000007C0040007C0C1
:103E9000040003C00000044007C00440040003C045
:103EA0000040000003800440044003800000041030
:103EB00007F0045004400380000000000380044029
:103EC000045007F00010044007C002400400040042
:103ED0000000000006400540054004C0000000004E
:103EE00004001F80044000400000040007800040E0
:103EF000044007C000400400070004C00180060021
:103F00000400060001C0070001C0060000000440D4
:103F100006C0010006C0044000000410071004E0C1
:103F20000180060004000000044005C00640044073
:103F300000000000000004007BE0402000000000C2
:103F400000000000FFF000000000000040207BE0C7
:103F5000040000000000400080004000200020001D
:103F60004000000000000000000000000000000011
:103F70000000000000F800000000000000333000E6
:103F8000000000100C06100C0600000000000000ED
:103F9000000040C07840C0784000043F04043F0463
:103FA0000400007088FC08300000001820FF211E6B
:103FB0000000F008F000E018000000211C031E21A2
:103FC0001E0000F00888700000001E21232419271D
:103FD000211010160E00000000000000000000007C
:103FE0000000000000E01804020000000007182094
:103FF000400000020418E000000000402018070004
:104000000000404080F0804040000202010F0102A9
:104010000200000000F0000000000101011F01018A
:104020000100000000000000000080B070000000EF
:10403000000000000000000000000001010101017B
:10404000010100000000000000000030300000000E
:1040500000000000000080601804006018060100E5
:10406000000000E010080810E000000F10202010F1
:104070000F00001010F8000000000020203F20205A
:1040800000000070080808887000003028242221F1
:1040900030000030088888483000001820202011A7
:1040A0000E000000C02010F8000000070424243F88
:1040B000240000F808888808080000192120201131
:1040C0000E0000E0108888180000000F1120201159
:1040D0000E0000380808C83808000000003F000043
:1040E00000000070880808887000001C222121222E
:1040F0001C0000E010080810E0000000312222112E
:104100000F00000000C0C0000000000000303000C0
:10411000000000000080000000000000806000003F
:104120000000000080402010080000010204081078
:104130002000404040404040400004040404040487
:104140000400000810204080000000201008040235
:104150000100007048080808F00000000030360137
:104160000000C030C828E810E000071827242314F6
:104170000B000000C038E0000000203C23020227B2
:10418000382008F8888888700000203F20202011FF
:104190000E00C0300808080838000718202020103A
:1041A000080008F808080810E000203F2020201030
:1041B0000F0008F88888E8081000203F20202320FE
:1041C000180008F88888E8081000203F2000030045
:1041D0000000C03008080838000007182020221E00
:1041E000020008F808000008F808203F210101211A
:1041F0003F20000808F8080800000020203F202089
:10420000000000000808F8080800C08080807F00D7
:10421000000008F888C028180800203F2001263830
:10422000200008F8080000000000203F2020202087
:10423000300008F8F800F8F80800203F003F003F81
:10424000200008F830C00008F808203F20000718B8
:104250003F00E01008080810E0000F102020201098
:104260000F0008F808080808F000203F21010101AC
:104270000000E01008080810E0000F18242438504F
:104280004F0008F8888888887000203F2000030CC1
:1042900030200070880808083800003820212122CA
:1042A0001C00180808F8080818000000203F20002B
:1042B000000008F808000008F808001F202020204F
:1042C0001F000878880000C83808000007380E0171
:1042D0000000F80800F80008F800033C0700073C5D
:1042E0000300081868808068180820302C03032C0D
:1042F00030200838C800C83808000000203F2000DF
:10430000000010080808C83808002038262120209E
:104310001800000000FE020202000000007F404082
:104320004000000C30C00000000000000001063812
:10433000C00000020202FE000000004040407F007A
:10434000000000000402020204000000000000005F
:10435000000000000000000000008080808080805D
:104360008080000202040000000000000000000045
:10437000000000008080808000000019242222229A
:104380003F2008F8008080000000003F112020112D
:104390000E000000008080800000000E1120202010
:1043A0001100000000808088F800000E112020100D
:1043B0003F200000808080800000001F22222222F7
:1043C0001300008080F0888888180020203F20207B
:1043D00000000000808080808000006B94949493A3
:1043E000600008F8008080800000203F210000204D
:1043F0003F2000809898000000000020203F2020EF
:104400000000000000809898000000C08080807F3D
:10441000000008F8000080808000203F24022D303A
:104420002000000808F8000000000020203F2020A5
:1044300000008080808080808000203F20003F201E
:10444000003F8080008080800000203F210000200D
:104450003F200000808080800000001F202020205E
:104460001F00808000808000000080FFA1202011BC
:104470000E000000008080808000000E112020A02F
:10448000FF80808080008080800020203F212000ED
:1044900001000000808080808000003324242424D8
:1044A0001900008080E0808000000000001F2020B4
:1044B00000008080000000808000001F202020106D
:1044C0003F20808080000080808000010E30080640
:1044D000010080800080008080800F300C030C3051
:1044E0000F0000808000808080000020312E0E317F
:1044F0002000808080000080808080818E7018067F
:10450000010000808080808080000021302C2221EA
:10451000300000000000807C020200000000003F2C
:10452000404000000000FF00000000000000FF000D
:1045300000000002027C800000000040403F0000BC
:104540000000000601010202040400000000000057
:10455000000000000000000000000000000000005B
:10456000000000000000000000000000000000004B
:10457000000000000000000000000000000000003B
:1045800000000000000F80380FFE380F8038000058
:10459000000000000000000000000000000000001B
:1045A0000100000600000C00003800003100000689
:1045B00000000C0000380000300000000000000087
:1045C000000061800067F807F98000618000618069
:1045D0000061800061800067F807F9800061800059
:1045E000000000000000000001C0E003E0F0063021
:1045F000080418081FFFFE040E080787F00381E077
:1046000000000000000001F000060C000404080691
:104610000C7001F9C0000E00003BE000EC18070828
:1046200008040C180003E00000000001E00007F09F
:1046300003F818041C0804170807E1D003C0E000C1
:1046400023B0003C0800200800001000000000001B
:10465000000100003100003200001C0000000000DA
:10466000000000000000000000000000000000004A
:10467000000000000000000000000000000000003A
:1046800000007F0001FFC00780F00C00181000043C
:104690002000020000000000002000021000040CB6
:1046A00000180780F001FFC0007F0000000000003C
:1046B00000000000000000000000000000004200B8
:1046C000006600006600003C0000180003FFC00008
:1046D0001800003C00006600006600004200000078
:1046E00000000800000800000800000800000800A2
:1046F00001FFC000080000080000080000080000DA
:10470000080000000000000100003100003200003D
:104710001C0000000000000000000000000000007D
:104720000000000000000000000008000008000079
:104730000800000800000800000800000800000849
:104740000000080000080000000000000000000059
:1047500000003800003800003800000000000000B1
:104760000000000000000000000000000000000049
:104770000000000600001C000070000180000E0018
:1047800000380000C0000700001C000030000000DE
:104790000000000000007F8001FFE0038070060041
:1047A0001804000804000806001803807001FFE0E8
:1047B000007F8000000000000000000001000801F0
:1047C000000801000803FFF807FFF80000080000D8
:1047D0000800000800000000000000000001C038D0
:1047E00002C05804009804011804021804041806B2
:1047F0001C1803F81801E0F8000000000000000099
:104800000001C0E003C0F004000804080804080820
:1048100006180803F41801E7F00001E000000000AA
:104820000000000000000300000D00001100006106
:104830000000810803010807FFF80FFFF8000108D6
:104840000001080000000000000000E007FCD006A6
:104850000808061008061008061008061838060F83
:10486000F00607C0000000000000000000003F80CC
:1048700001FFE00384300208180410080410080443
:104880001008071810030FF00007C0000000000018
:104890000000000003C0000700000600000600F84A
:1048A0000607F806180006E00007000006000000F2
:1048B000000000000001E1E003F7F00634100418E6
:1048C00008041808040C08040C0806161803F3F072
:1048D00001C1E000000000000000F80003FC30030C
:1048E000063804020804020804020804041003083D
:1048F000F001FFC0007F0000000000000000000089
:104900000000000000000000000070380070380057
:1049100070380000000000000000000000000000EF
:104920000000000000000000000000000000301A3D
:1049300000301C000000000000000000000000002B
:104940000000000000000000000800001400002229
:10495000000041000080800100400200200400109F
:1049600008000800000000000000210000210000F5
:104970002100002100002100002100002100002171
:1049800000002100002100000000000000000000E5
:104990000800080400100200200100400080800090
:1049A0004100002200001400000800000000000088
:1049B0000003C00004C000040000080038080F38DD
:1049C0000808380810000C300007E00003C00000A1
:1049D0000000000000003F8000FFE0038070020F35
:1049E0001006708804C088048308047F8802C09081
:1049F00003012000FE400000080000180001F8003C
:104A00003E0801C20007020007E20000FE00001F8E
:104A1000C80001F800003800000804000807FFF88B
:104A200007FFF80408080408080408080408080632
:104A3000180803F41801E7F00001E000000000008E
:104A400000003F8001FFE0038070020018040008AE
:104A50000400080400080400100600200780C000BD
:104A6000000004000807FFF807FFF804000804002E
:104A70000804000804001802001003807001FFE021
:104A8000007F8000000004000807FFF807FFF8041B
:104A90000808040808040808040808043E0804007C
:104AA0000806001801006000000004000807FFF875
:104AB00007FFF804080804080004080004080004BC
:104AC0003E0006000006000001800000000000001B
:104AD00000003F8001FFE00380700600180400081A
:104AE0000402080402080203F00783F00002000039
:104AF000020004000807FFF807FFF8040808000890
:104B00000000080000080000080004080807FFF87B
:104B100007FFF8040008000000000000040008047B
:104B2000000804000807FFF807FFF8040008040065
:104B3000080400080000000000000000000000065B
:104B40000000070000010400010400010400030745
:104B5000FFFE07FFFC040000040000040000040046
:104B60000807FFF807FFF8040C08001800003E00D3
:104B700004C7800503C80600F804003804001800C4
:104B8000000804000807FFF807FFF8040008000009
:104B900008000008000008000008000008000018D5
:104BA00000006000000004000807FFF80780080705
:104BB000FC00007FC00003F80007C00078000780F9
:104BC0000807FFF807FFF804000804000807FFF8CB
:104BD00007000803C00000E000003800001E0000CD
:104BE00007000001C00400F007FFF8040000000007
:104BF00000007F8001FFE0038070060018040008B9
:104C000004000806001803003001FFE0007F800068
:104C1000000004000807FFF807FFF8040408040474
:104C200000040400040400040400060C0003F8005F
:104C300001F000000000000000007F8001FFE003A1
:104C400080700600880400880400C806003C030049
:104C50003E01FFE6007F8400000004000807FFF823
:104C600007FFF8040808040800040C00040F0004FF
:104C70000BC00610F003F03801E008000008000047
:104C80000001E0F803F0300630100418080418089A
:104C9000040C08040C080206180207F00781E00063
:104CA0000000018000060000040000040000040071
:104CB0000807FFF807FFF8040008040000040000DC
:104CC00006000001800004000007FFE007FFF00479
:104CD000001800000800000800000800000800009C
:104CE0000804001007FFE0040000040000060000B4
:104CF00007E00007FE00041FE00001F80000380094
:104D000001E0043E0007C0000600000400000400AB
:104D10000007E00007FFC0041FF80007C007F80005
:104D200007FF80043FF80007C004F80007000004F4
:104D3000000000000004000806001807C07805F114
:104D4000C8003E00001F800463E80780F8060018D2
:104D500004000800000004000006000007800007AF
:104D6000E008047C08001FF80007F800180804E0B9
:104D70000807000006000004000000000001000811
:104D80000600380400F80403E8040F08047C080552
:104D9000F00807C0080700180400600000000000C9
:104DA000000000000000000000000000003FFFFEC7
:104DB0002000022000022000022000022000020049
:104DC000000000000000000008000007000000C014
:104DD000000038000006000001C000003000000E96
:104DE0000000010000000000000000002000022080
:104DF00000022000022000022000023FFFFE00000F
:104E000000000000000000000000000000000000A2
:104E100000000008000010000030000020000030FA
:104E2000000010000008000000000000000000006A
:104E3000010000010000010000010000010000016C
:104E4000000001000001000001000001000001005D
:104E50000001000000000000000000200000200011
:104E60000010000010000000000000000000000022
:104E70000000000000000000000000F00019F80031
:104E80001B18002208002608002408002410003FF8
:104E9000F8001FF8000008000018000000040000DF
:104EA00007FFF80FFFF00018180010080020080096
:104EB0002008003018001FF0000FC00000000000A4
:104EC000000007C0001FF000183000200800200874
:104ED000002008003C08001C1000006000000000DA
:104EE00000000000000007C0001FF000381800207C
:104EF0000800200800200804101007FFF80FFFF03A
:104F00000000100000000000000000000007C000CA
:104F10001FF0001230002218002208002208003280
:104F200008001E10000E20000000000000002000FD
:104F300000200800200801FFF803FFF806200804FD
:104F400020080420080720000300000000000000E3
:104F50000000000E000E6E001FF30031B10020B102
:104F60000020B1003191001F13002E1E00200E0002
:104F7000300000000004000807FFF80FFFF80010E1
:104F800008002000002000002008003FF8001FF863
:104F900000000800000000000000000000200800E1
:104FA0002008002008063FF8063FF800000800002F
:104FB00008000008000000000000000000000000E1
:104FC0000000030000030020010020010020030670
:104FD0003FFE063FFC000000000000000000000053
:104FE0000004000807FFF80FFFF800018800030025
:104FF000002FC00038F8002038002008000008000A
:105000000000000000000000040008040008040084
:105010000807FFF80FFFF80000080000080000086C
:10502000000000000000002008003FF8003FF800EA
:105030001008002000003FF8003FF8001008002092
:1050400000003FF8003FF8000008000000002008C2
:10505000003FF8003FF8001008001000002000009A
:105060002008003FF8001FF80000080000000000C2
:10507000000007C0000FF0001830003008002008C2
:10508000002008003008001830000FF00007C000B2
:105090000000000000002001003FFF003FFF001063
:1050A00011002009002008002008003038001FF0FF
:1050B000000FC00000000000000007C0001FF0004B
:1050C0003818002008002008002009001011001FD7
:1050D000FF003FFF00000100000000200800200842
:1050E000002008003FF8003FF80008080010080002
:1050F0002008002000003000003000000000000008
:1051000000000000000C78001E180033080023087F
:105110000021080021880021980030F0003860004C
:10512000000000000000200000200000200000FF20
:10513000F003FFF8002008002008002008000030DD
:10514000000000000000000000002000003FF00010
:105150007FF8000018000008000008002010003F41
:10516000F8007FF0000010000000000000002000A8
:10517000003000003C00003F800023F00000780079
:105180000070002380003C00003000002000002060
:1051900000003C00003FE00023F80000E000270092
:1051A000003E00003FE00021F80001E0003E00006A
:1051B0002000000000002008002008003838003ED1
:1051C000680027800003C8002CF800383800201839
:1051D0000020080000000000000020000030030054
:1051E0003C01003F830023EC000070002380003C62
:1051F000000020000020000000000000000000006F
:105200000038080020380020F80023E8002F88002C
:105210003E08003808002018000070000000000060
:105220000000000000000000000000000000080076
:105230000014001FF7FC30000620000200000000F0
:10524000000000000000000000000000000000005E
:1052500000000000FFFFFF00000000000000000051
:1052600000000000000000000000000020000230EC
:1052700000061FF7FC0014000008000000000000FA
:105280000000000000000000000000000018000006
:1052900060000040000040000020000010000008F6
:1052A00000000400000400000C00001000000000DA
:1052B000D05200080000002030020000C4010008A5
:1052C000C453000830020020280700002002000814
:1052D0000116D31040847A030A4009010203040630
:1052E0000708091203250401050D12020315011018
:1052F000000F12FE0222DA0620D808090E088828BC
:105300001816FF081008070008133F4444424140A4
:105310007816F808FF08F80008123EAA6A3E2AAA82
:105320003E0010122063211F11394829098DFB0905
:10533000082C58158060F807151CE001060313E0DF
:105340001E1A018211080B12804020130C132040FA
:105350008080811A88012AFF050215F81B1F0801A9
:105360002A7F200C109F80F07F3A82010F13E2A267
:10537000928A86826031041840807F172424A4FE1C
:10538000A3222B22CCA8011315080601FF2B010430
:10539000010511FF0202025808101010FF109008BA
:1053A000C3021108080F150444827F018080404326
:1053B0002C10284681A0312D0102030404050006AB
:0453C00007080900D1
:040000050800018965
:00000001FF
